{
  "contractName": "RCToken",
  "abi": [
    {
      "inputs": [
        {
          "internalType": "int256",
          "name": "message",
          "type": "int256"
        }
      ],
      "stateMutability": "nonpayable",
      "type": "constructor"
    },
    {
      "inputs": [],
      "name": "totalSupply",
      "outputs": [
        {
          "internalType": "uint256",
          "name": "",
          "type": "uint256"
        }
      ],
      "stateMutability": "view",
      "type": "function"
    }
  ],
  "bytecode": "0x608060405234801561001057600080fd5b5060405161016b38038061016b83398181016040528101906100329190610057565b620f4240600081905550506100aa565b60008151905061005181610093565b92915050565b60006020828403121561006d5761006c61008e565b5b600061007b84828501610042565b91505092915050565b6000819050919050565b600080fd5b61009c81610084565b81146100a757600080fd5b50565b60b3806100b86000396000f3fe6080604052348015600f57600080fd5b506004361060285760003560e01c806318160ddd14602d575b600080fd5b60336047565b604051603e9190605a565b60405180910390f35b60005481565b6054816073565b82525050565b6000602082019050606d6000830184604d565b92915050565b600081905091905056fea26469706673582212208ddef453ca72de285f29c464d46db0c14f370072431b67521472af27153368da64736f6c63430008070033",
  "immutableReferences": {},
  "source": "pragma solidity ^0.8.7;\r\n\r\ncontract RCToken {\r\n    uint256 public totalSupply;\r\n\r\n    constructor(int message) public {\r\n        totalSupply = 1000000;\r\n    }\r\n}",
  "sourcePath": "D:\\Study\\Practice\\SEM 7\\Blockchain Technologies\\token_sale\\contracts\\RCToken.sol",
  "compiler": {
    "name": "solc",
    "version": "0.8.7+commit.e28d00a7.Emscripten.clang"
  },
  "schemaVersion": "3.4.3",
  "updatedAt": "2021-08-16T08:10:13.425Z",
  "devdoc": {
    "kind": "dev",
    "methods": {},
    "version": 1
  },
  "userdoc": {
    "kind": "user",
    "methods": {},
    "version": 1
  }
}